{
  "contractName": "Advertisement",
  "abi": [
    {
      "inputs": [],
      "payable": false,
      "stateMutability": "nonpayable",
      "type": "constructor"
    },
    {
      "anonymous": false,
      "inputs": [
        {
          "indexed": false,
          "internalType": "string",
          "name": "_title",
          "type": "string"
        },
        {
          "indexed": false,
          "internalType": "string",
          "name": "_desc",
          "type": "string"
        },
        {
          "indexed": false,
          "internalType": "string",
          "name": "_link",
          "type": "string"
        },
        {
          "indexed": false,
          "internalType": "string",
          "name": "_imgHash",
          "type": "string"
        },
        {
          "indexed": false,
          "internalType": "uint256",
          "name": "currentValue",
          "type": "uint256"
        },
        {
          "indexed": false,
          "internalType": "address",
          "name": "currentOwner",
          "type": "address"
        }
      ],
      "name": "newAd",
      "type": "event"
    },
    {
      "constant": true,
      "inputs": [],
      "name": "currentAd",
      "outputs": [
        {
          "internalType": "address",
          "name": "AdOwner",
          "type": "address"
        },
        {
          "internalType": "string",
          "name": "title",
          "type": "string"
        },
        {
          "internalType": "string",
          "name": "desc",
          "type": "string"
        },
        {
          "internalType": "string",
          "name": "link",
          "type": "string"
        },
        {
          "internalType": "string",
          "name": "imgHash",
          "type": "string"
        }
      ],
      "payable": false,
      "stateMutability": "view",
      "type": "function"
    },
    {
      "constant": false,
      "inputs": [
        {
          "internalType": "string",
          "name": "_title",
          "type": "string"
        },
        {
          "internalType": "string",
          "name": "_desc",
          "type": "string"
        },
        {
          "internalType": "string",
          "name": "_link",
          "type": "string"
        },
        {
          "internalType": "string",
          "name": "_imgHash",
          "type": "string"
        }
      ],
      "name": "putAd",
      "outputs": [],
      "payable": true,
      "stateMutability": "payable",
      "type": "function"
    },
    {
      "constant": true,
      "inputs": [],
      "name": "getAd",
      "outputs": [
        {
          "internalType": "string",
          "name": "",
          "type": "string"
        },
        {
          "internalType": "string",
          "name": "",
          "type": "string"
        },
        {
          "internalType": "string",
          "name": "",
          "type": "string"
        },
        {
          "internalType": "string",
          "name": "",
          "type": "string"
        },
        {
          "internalType": "uint256",
          "name": "",
          "type": "uint256"
        },
        {
          "internalType": "address payable",
          "name": "",
          "type": "address"
        },
        {
          "internalType": "uint256",
          "name": "",
          "type": "uint256"
        }
      ],
      "payable": false,
      "stateMutability": "view",
      "type": "function"
    }
  ],
  "bytecode": "0x608060405234801561001057600080fd5b5060008081905550600060018190555061129b8061002f6000396000f3fe6080604052600436106100345760003560e01c80635c86110c146100395780636a60c08514610240578063da4700ed146104c0575b600080fd5b34801561004557600080fd5b5061004e6106d5565b604051808673ffffffffffffffffffffffffffffffffffffffff1673ffffffffffffffffffffffffffffffffffffffff16815260200180602001806020018060200180602001858103855289818151815260200191508051906020019080838360005b838110156100cc5780820151818401526020810190506100b1565b50505050905090810190601f1680156100f95780820380516001836020036101000a031916815260200191505b50858103845288818151815260200191508051906020019080838360005b83811015610132578082015181840152602081019050610117565b50505050905090810190601f16801561015f5780820380516001836020036101000a031916815260200191505b50858103835287818151815260200191508051906020019080838360005b8381101561019857808201518184015260208101905061017d565b50505050905090810190601f1680156101c55780820380516001836020036101000a031916815260200191505b50858103825286818151815260200191508051906020019080838360005b838110156101fe5780820151818401526020810190506101e3565b50505050905090810190601f16801561022b5780820380516001836020036101000a031916815260200191505b50995050505050505050505060405180910390f35b6104be6004803603608081101561025657600080fd5b810190808035906020019064010000000081111561027357600080fd5b82018360208201111561028557600080fd5b803590602001918460018302840111640100000000831117156102a757600080fd5b91908080601f016020809104026020016040519081016040528093929190818152602001838380828437600081840152601f19601f8201169050808301925050505050505091929192908035906020019064010000000081111561030a57600080fd5b82018360208201111561031c57600080fd5b8035906020019184600183028401116401000000008311171561033e57600080fd5b91908080601f016020809104026020016040519081016040528093929190818152602001838380828437600081840152601f19601f820116905080830192505050505050509192919290803590602001906401000000008111156103a157600080fd5b8201836020820111156103b357600080fd5b803590602001918460018302840111640100000000831117156103d557600080fd5b91908080601f016020809104026020016040519081016040528093929190818152602001838380828437600081840152601f19601f8201169050808301925050505050505091929192908035906020019064010000000081111561043857600080fd5b82018360208201111561044a57600080fd5b8035906020019184600183028401116401000000008311171561046c57600080fd5b91908080601f016020809104026020016040519081016040528093929190818152602001838380828437600081840152601f19601f820116905080830192505050505050509192919290505050610979565b005b3480156104cc57600080fd5b506104d5610ef3565b60405180806020018060200180602001806020018881526020018773ffffffffffffffffffffffffffffffffffffffff1673ffffffffffffffffffffffffffffffffffffffff16815260200186815260200185810385528c818151815260200191508051906020019080838360005b8381101561055f578082015181840152602081019050610544565b50505050905090810190601f16801561058c5780820380516001836020036101000a031916815260200191505b5085810384528b818151815260200191508051906020019080838360005b838110156105c55780820151818401526020810190506105aa565b50505050905090810190601f1680156105f25780820380516001836020036101000a031916815260200191505b5085810383528a818151815260200191508051906020019080838360005b8381101561062b578082015181840152602081019050610610565b50505050905090810190601f1680156106585780820380516001836020036101000a031916815260200191505b50858103825289818151815260200191508051906020019080838360005b83811015610691578082015181840152602081019050610676565b50505050905090810190601f1680156106be5780820380516001836020036101000a031916815260200191505b509b50505050505050505050505060405180910390f35b60038060000160009054906101000a900473ffffffffffffffffffffffffffffffffffffffff1690806001018054600181600116156101000203166002900480601f0160208091040260200160405190810160405280929190818152602001828054600181600116156101000203166002900480156107955780601f1061076a57610100808354040283529160200191610795565b820191906000526020600020905b81548152906001019060200180831161077857829003601f168201915b505050505090806002018054600181600116156101000203166002900480601f0160208091040260200160405190810160405280929190818152602001828054600181600116156101000203166002900480156108335780601f1061080857610100808354040283529160200191610833565b820191906000526020600020905b81548152906001019060200180831161081657829003601f168201915b505050505090806003018054600181600116156101000203166002900480601f0160208091040260200160405190810160405280929190818152602001828054600181600116156101000203166002900480156108d15780601f106108a6576101008083540402835291602001916108d1565b820191906000526020600020905b8154815290600101906020018083116108b457829003601f168201915b505050505090806004018054600181600116156101000203166002900480601f01602080910402602001604051908101604052809291908181526020018280546001816001161561010002031660029004801561096f5780601f106109445761010080835404028352916020019161096f565b820191906000526020600020905b81548152906001019060200180831161095257829003601f168201915b5050505050905085565b8383838334600154811161098c57600080fd5b6000855111610a03576040517f08c379a000000000000000000000000000000000000000000000000000000000815260040180806020018281038252600d8152602001807f496e76616c6964205469746c650000000000000000000000000000000000000081525060200191505060405180910390fd5b6000845111610a7a576040517f08c379a00000000000000000000000000000000000000000000000000000000081526004018080602001828103825260138152602001807f496e76616c6964204465736372697074696f6e0000000000000000000000000081525060200191505060405180910390fd5b6000835111610af1576040517f08c379a000000000000000000000000000000000000000000000000000000000815260040180806020018281038252600c8152602001807f496e76616c6964204c696e6b000000000000000000000000000000000000000081525060200191505060405180910390fd5b6000825111610b68576040517f08c379a00000000000000000000000000000000000000000000000000000000081526004018080602001828103825260128152602001807f496e76616c696420496d6167652048617368000000000000000000000000000081525060200191505060405180910390fd5b600073ffffffffffffffffffffffffffffffffffffffff163373ffffffffffffffffffffffffffffffffffffffff161415610c0b576040517f08c379a000000000000000000000000000000000000000000000000000000000815260040180806020018281038252600f8152602001807f496e76616c69642041646472657373000000000000000000000000000000000081525060200191505060405180910390fd5b3460008082825401925050819055508860036001019080519060200190610c339291906111c1565b508760036002019080519060200190610c4d9291906111c1565b5086600380019080519060200190610c669291906111c1565b508560036004019080519060200190610c809291906111c1565b503460018190555033600260006101000a81548173ffffffffffffffffffffffffffffffffffffffff021916908373ffffffffffffffffffffffffffffffffffffffff1602179055507f2e8394a5ba09cc200e0d349d9d101846589b8050175384726739859ae23ba9c989898989343360405180806020018060200180602001806020018781526020018673ffffffffffffffffffffffffffffffffffffffff1673ffffffffffffffffffffffffffffffffffffffff16815260200185810385528b818151815260200191508051906020019080838360005b83811015610d74578082015181840152602081019050610d59565b50505050905090810190601f168015610da15780820380516001836020036101000a031916815260200191505b5085810384528a818151815260200191508051906020019080838360005b83811015610dda578082015181840152602081019050610dbf565b50505050905090810190601f168015610e075780820380516001836020036101000a031916815260200191505b50858103835289818151815260200191508051906020019080838360005b83811015610e40578082015181840152602081019050610e25565b50505050905090810190601f168015610e6d5780820380516001836020036101000a031916815260200191505b50858103825288818151815260200191508051906020019080838360005b83811015610ea6578082015181840152602081019050610e8b565b50505050905090810190601f168015610ed35780820380516001836020036101000a031916815260200191505b509a505050505050505050505060405180910390a1505050505050505050565b606080606080600080600060036001016003600201600380016003600401600154600260009054906101000a900473ffffffffffffffffffffffffffffffffffffffff16600054868054600181600116156101000203166002900480601f016020809104026020016040519081016040528092919081815260200182805460018160011615610100020316600290048015610fcf5780601f10610fa457610100808354040283529160200191610fcf565b820191906000526020600020905b815481529060010190602001808311610fb257829003601f168201915b50505050509650858054600181600116156101000203166002900480601f01602080910402602001604051908101604052809291908181526020018280546001816001161561010002031660029004801561106b5780601f106110405761010080835404028352916020019161106b565b820191906000526020600020905b81548152906001019060200180831161104e57829003601f168201915b50505050509550848054600181600116156101000203166002900480601f0160208091040260200160405190810160405280929190818152602001828054600181600116156101000203166002900480156111075780601f106110dc57610100808354040283529160200191611107565b820191906000526020600020905b8154815290600101906020018083116110ea57829003601f168201915b50505050509450838054600181600116156101000203166002900480601f0160208091040260200160405190810160405280929190818152602001828054600181600116156101000203166002900480156111a35780601f10611178576101008083540402835291602001916111a3565b820191906000526020600020905b81548152906001019060200180831161118657829003601f168201915b50505050509350965096509650965096509650965090919293949596565b828054600181600116156101000203166002900490600052602060002090601f016020900481019282601f1061120257805160ff1916838001178555611230565b82800160010185558215611230579182015b8281111561122f578251825591602001919060010190611214565b5b50905061123d9190611241565b5090565b61126391905b8082111561125f576000816000905550600101611247565b5090565b9056fea265627a7a7231582073b5199bbd7ef42621e4d50e6cb1e40bd668a181273ab0a83913c35344aba78064736f6c63430005100032",
  "source": "// SPDX-License-Identifier: MIT\r\npragma solidity >=0.4.21 <0.7.0;\r\n\r\ncontract Advertisement {\r\n    struct Ad{\r\n        address AdOwner;\r\n        string title;\r\n        string desc;\r\n        string link;\r\n        string imgHash;\r\n    }\r\n\r\n    uint moneyCollected;\r\n    uint highestAmount;\r\n    address payable highestBidder;\r\n\r\n    Ad public currentAd;\r\n\r\n    constructor() public {\r\n        moneyCollected=0 ether;\r\n        highestAmount=0 ether;\r\n    }\r\n    modifier allowToPut(string memory _title, string memory _desc, string memory _link, string memory _imgHash,uint value){\r\n        require(value>highestAmount);\r\n        require(bytes(_title).length>0, \"Invalid Title\");\r\n        require(bytes(_desc).length>0, \"Invalid Description\");\r\n        require(bytes(_link).length>0, \"Invalid Link\");\r\n        require(bytes(_imgHash).length>0, \"Invalid Image Hash\");\r\n        require(msg.sender!=address(0), \"Invalid Address\");\r\n        _;\r\n    }\r\n\r\n    event newAd(string _title,string _desc, string  _link, string _imgHash, uint currentValue,address currentOwner);\r\n\r\n    function putAd(string memory _title, string memory _desc, string memory _link, string memory _imgHash) allowToPut(_title,_desc,_link,_imgHash,msg.value) public payable{\r\n        moneyCollected += msg.value;\r\n        currentAd.title = _title;\r\n        currentAd.desc = _desc;\r\n        currentAd.link = _link;\r\n        currentAd.imgHash = _imgHash;\r\n        highestAmount = msg.value;\r\n        highestBidder = msg.sender;\r\n        emit newAd(_title,_desc,_link,_imgHash,msg.value, msg.sender);\r\n    }\r\n\r\n    function getAd() public view returns(string memory,string memory,string memory,string memory,uint,address payable, uint){\r\n        return(currentAd.title, currentAd.desc, currentAd.link, currentAd.imgHash, highestAmount, highestBidder, moneyCollected);\r\n    }\r\n\r\n}\r\n",
  "sourcePath": "C:\\Users\\rhars\\Desktop\\Admatric\\contracts\\Advertisement.sol",
  "compiler": {
    "name": "solc",
    "version": "0.5.16+commit.9c3226ce.Emscripten.clang"
  },
  "schemaVersion": "3.4.4",
  "updatedAt": "2022-01-18T14:57:39.950Z",
  "networkType": "ethereum",
  "devdoc": {
    "methods": {}
  },
  "userdoc": {
    "methods": {}
  }
}